{
  "contractName": "ColorNFT",
  "abi": [
    {
      "inputs": [],
      "stateMutability": "nonpayable",
      "type": "constructor"
    },
    {
      "anonymous": false,
      "inputs": [
        {
          "indexed": true,
          "internalType": "address",
          "name": "owner",
          "type": "address"
        },
        {
          "indexed": true,
          "internalType": "address",
          "name": "approved",
          "type": "address"
        },
        {
          "indexed": true,
          "internalType": "uint256",
          "name": "tokenId",
          "type": "uint256"
        }
      ],
      "name": "Approval",
      "type": "event"
    },
    {
      "anonymous": false,
      "inputs": [
        {
          "indexed": true,
          "internalType": "address",
          "name": "owner",
          "type": "address"
        },
        {
          "indexed": true,
          "internalType": "address",
          "name": "operator",
          "type": "address"
        },
        {
          "indexed": false,
          "internalType": "bool",
          "name": "approved",
          "type": "bool"
        }
      ],
      "name": "ApprovalForAll",
      "type": "event"
    },
    {
      "anonymous": false,
      "inputs": [
        {
          "indexed": true,
          "internalType": "address",
          "name": "from",
          "type": "address"
        },
        {
          "indexed": true,
          "internalType": "address",
          "name": "to",
          "type": "address"
        },
        {
          "indexed": true,
          "internalType": "uint256",
          "name": "tokenId",
          "type": "uint256"
        }
      ],
      "name": "Transfer",
      "type": "event"
    },
    {
      "inputs": [
        {
          "internalType": "address",
          "name": "to",
          "type": "address"
        },
        {
          "internalType": "uint256",
          "name": "tokenId",
          "type": "uint256"
        }
      ],
      "name": "approve",
      "outputs": [],
      "stateMutability": "nonpayable",
      "type": "function"
    },
    {
      "inputs": [
        {
          "internalType": "address",
          "name": "owner",
          "type": "address"
        }
      ],
      "name": "balanceOf",
      "outputs": [
        {
          "internalType": "uint256",
          "name": "",
          "type": "uint256"
        }
      ],
      "stateMutability": "view",
      "type": "function",
      "constant": true
    },
    {
      "inputs": [
        {
          "internalType": "uint256",
          "name": "",
          "type": "uint256"
        }
      ],
      "name": "colors",
      "outputs": [
        {
          "internalType": "string",
          "name": "",
          "type": "string"
        }
      ],
      "stateMutability": "view",
      "type": "function",
      "constant": true
    },
    {
      "inputs": [
        {
          "internalType": "uint256",
          "name": "tokenId",
          "type": "uint256"
        }
      ],
      "name": "getApproved",
      "outputs": [
        {
          "internalType": "address",
          "name": "",
          "type": "address"
        }
      ],
      "stateMutability": "view",
      "type": "function",
      "constant": true
    },
    {
      "inputs": [
        {
          "internalType": "address",
          "name": "owner",
          "type": "address"
        },
        {
          "internalType": "address",
          "name": "operator",
          "type": "address"
        }
      ],
      "name": "isApprovedForAll",
      "outputs": [
        {
          "internalType": "bool",
          "name": "",
          "type": "bool"
        }
      ],
      "stateMutability": "view",
      "type": "function",
      "constant": true
    },
    {
      "inputs": [],
      "name": "name",
      "outputs": [
        {
          "internalType": "string",
          "name": "",
          "type": "string"
        }
      ],
      "stateMutability": "view",
      "type": "function",
      "constant": true
    },
    {
      "inputs": [
        {
          "internalType": "uint256",
          "name": "tokenId",
          "type": "uint256"
        }
      ],
      "name": "ownerOf",
      "outputs": [
        {
          "internalType": "address",
          "name": "",
          "type": "address"
        }
      ],
      "stateMutability": "view",
      "type": "function",
      "constant": true
    },
    {
      "inputs": [
        {
          "internalType": "address",
          "name": "from",
          "type": "address"
        },
        {
          "internalType": "address",
          "name": "to",
          "type": "address"
        },
        {
          "internalType": "uint256",
          "name": "tokenId",
          "type": "uint256"
        }
      ],
      "name": "safeTransferFrom",
      "outputs": [],
      "stateMutability": "nonpayable",
      "type": "function"
    },
    {
      "inputs": [
        {
          "internalType": "address",
          "name": "from",
          "type": "address"
        },
        {
          "internalType": "address",
          "name": "to",
          "type": "address"
        },
        {
          "internalType": "uint256",
          "name": "tokenId",
          "type": "uint256"
        },
        {
          "internalType": "bytes",
          "name": "_data",
          "type": "bytes"
        }
      ],
      "name": "safeTransferFrom",
      "outputs": [],
      "stateMutability": "nonpayable",
      "type": "function"
    },
    {
      "inputs": [
        {
          "internalType": "address",
          "name": "operator",
          "type": "address"
        },
        {
          "internalType": "bool",
          "name": "approved",
          "type": "bool"
        }
      ],
      "name": "setApprovalForAll",
      "outputs": [],
      "stateMutability": "nonpayable",
      "type": "function"
    },
    {
      "inputs": [],
      "name": "symbol",
      "outputs": [
        {
          "internalType": "string",
          "name": "",
          "type": "string"
        }
      ],
      "stateMutability": "view",
      "type": "function",
      "constant": true
    },
    {
      "inputs": [
        {
          "internalType": "uint256",
          "name": "index",
          "type": "uint256"
        }
      ],
      "name": "tokenByIndex",
      "outputs": [
        {
          "internalType": "uint256",
          "name": "",
          "type": "uint256"
        }
      ],
      "stateMutability": "view",
      "type": "function",
      "constant": true
    },
    {
      "inputs": [
        {
          "internalType": "address",
          "name": "owner",
          "type": "address"
        },
        {
          "internalType": "uint256",
          "name": "index",
          "type": "uint256"
        }
      ],
      "name": "tokenOfOwnerByIndex",
      "outputs": [
        {
          "internalType": "uint256",
          "name": "",
          "type": "uint256"
        }
      ],
      "stateMutability": "view",
      "type": "function",
      "constant": true
    },
    {
      "inputs": [
        {
          "internalType": "uint256",
          "name": "tokenId",
          "type": "uint256"
        }
      ],
      "name": "tokenURI",
      "outputs": [
        {
          "internalType": "string",
          "name": "",
          "type": "string"
        }
      ],
      "stateMutability": "view",
      "type": "function",
      "constant": true
    },
    {
      "inputs": [],
      "name": "totalSupply",
      "outputs": [
        {
          "internalType": "uint256",
          "name": "",
          "type": "uint256"
        }
      ],
      "stateMutability": "view",
      "type": "function",
      "constant": true
    },
    {
      "inputs": [
        {
          "internalType": "address",
          "name": "from",
          "type": "address"
        },
        {
          "internalType": "address",
          "name": "to",
          "type": "address"
        },
        {
          "internalType": "uint256",
          "name": "tokenId",
          "type": "uint256"
        }
      ],
      "name": "transferFrom",
      "outputs": [],
      "stateMutability": "nonpayable",
      "type": "function"
    },
    {
      "inputs": [
        {
          "internalType": "bytes4",
          "name": "interfaceId",
          "type": "bytes4"
        }
      ],
      "name": "supportsInterface",
      "outputs": [
        {
          "internalType": "bool",
          "name": "",
          "type": "bool"
        }
      ],
      "stateMutability": "view",
      "type": "function",
      "constant": true
    },
    {
      "inputs": [
        {
          "internalType": "string",
          "name": "_color",
          "type": "string"
        }
      ],
      "name": "safeMint",
      "outputs": [],
      "stateMutability": "nonpayable",
      "type": "function"
    }
  ],
  "bytecode": "0x60806040523480156200001157600080fd5b506040518060400160405280600581526020017f436f6c6f720000000000000000000000000000000000000000000000000000008152506040518060400160405280600581526020017f434f4c4f52000000000000000000000000000000000000000000000000000000815250816000908051906020019062000096929190620000b8565b508060019080519060200190620000af929190620000b8565b505050620001cd565b828054620000c69062000168565b90600052602060002090601f016020900481019282620000ea576000855562000136565b82601f106200010557805160ff191683800117855562000136565b8280016001018555821562000136579182015b828111156200013557825182559160200191906001019062000118565b5b50905062000145919062000149565b5090565b5b80821115620001645760008160009055506001016200014a565b5090565b600060028204905060018216806200018157607f821691505b602082108114156200019857620001976200019e565b5b50919050565b7f4e487b7100000000000000000000000000000000000000000000000000000000600052602260045260246000fd5b6132db80620001dd6000396000f3fe608060405234801561001057600080fd5b50600436106101165760003560e01c80636352211e116100a2578063a22cb46511610071578063a22cb46514610305578063b88d4fde14610321578063bd11f69d1461033d578063c87b56dd1461036d578063e985e9c51461039d57610116565b80636352211e1461026b578063695850fb1461029b57806370a08231146102b757806395d89b41146102e757610116565b806318160ddd116100e957806318160ddd146101b557806323b872dd146101d35780632f745c59146101ef57806342842e0e1461021f5780634f6ccce71461023b57610116565b806301ffc9a71461011b57806306fdde031461014b578063081812fc14610169578063095ea7b314610199575b600080fd5b6101356004803603810190610130919061223e565b6103cd565b60405161014291906126d3565b60405180910390f35b6101536103df565b60405161016091906126ee565b60405180910390f35b610183600480360381019061017e91906122e1565b610471565b604051610190919061266c565b60405180910390f35b6101b360048036038101906101ae91906121fe565b6104f6565b005b6101bd61060e565b6040516101ca9190612930565b60405180910390f35b6101ed60048036038101906101e891906120e8565b61061b565b005b610209600480360381019061020491906121fe565b61067b565b6040516102169190612930565b60405180910390f35b610239600480360381019061023491906120e8565b610720565b005b610255600480360381019061025091906122e1565b610740565b6040516102629190612930565b60405180910390f35b610285600480360381019061028091906122e1565b6107b1565b604051610292919061266c565b60405180910390f35b6102b560048036038101906102b09190612298565b610863565b005b6102d160048036038101906102cc919061207b565b61095a565b6040516102de9190612930565b60405180910390f35b6102ef610a12565b6040516102fc91906126ee565b60405180910390f35b61031f600480360381019061031a91906121be565b610aa4565b005b61033b6004803603810190610336919061213b565b610c25565b005b610357600480360381019061035291906122e1565b610c87565b60405161036491906126ee565b60405180910390f35b610387600480360381019061038291906122e1565b610d33565b60405161039491906126ee565b60405180910390f35b6103b760048036038101906103b291906120a8565b610dda565b6040516103c491906126d3565b60405180910390f35b60006103d882610e6e565b9050919050565b6060600080546103ee90612b86565b80601f016020809104026020016040519081016040528092919081815260200182805461041a90612b86565b80156104675780601f1061043c57610100808354040283529160200191610467565b820191906000526020600020905b81548152906001019060200180831161044a57829003601f168201915b5050505050905090565b600061047c82610ee8565b6104bb576040517f08c379a00000000000000000000000000000000000000000000000000000000081526004016104b290612850565b60405180910390fd5b6004600083815260200190815260200160002060009054906101000a900473ffffffffffffffffffffffffffffffffffffffff169050919050565b6000610501826107b1565b90508073ffffffffffffffffffffffffffffffffffffffff168373ffffffffffffffffffffffffffffffffffffffff161415610572576040517f08c379a0000000000000000000000000000000000000000000000000000000008152600401610569906128d0565b60405180910390fd5b8073ffffffffffffffffffffffffffffffffffffffff16610591610f54565b73ffffffffffffffffffffffffffffffffffffffff1614806105c057506105bf816105ba610f54565b610dda565b5b6105ff576040517f08c379a00000000000000000000000000000000000000000000000000000000081526004016105f6906127d0565b60405180910390fd5b6106098383610f5c565b505050565b6000600880549050905090565b61062c610626610f54565b82611015565b61066b576040517f08c379a0000000000000000000000000000000000000000000000000000000008152600401610662906128f0565b60405180910390fd5b6106768383836110f3565b505050565b60006106868361095a565b82106106c7576040517f08c379a00000000000000000000000000000000000000000000000000000000081526004016106be90612710565b60405180910390fd5b600660008473ffffffffffffffffffffffffffffffffffffffff1673ffffffffffffffffffffffffffffffffffffffff168152602001908152602001600020600083815260200190815260200160002054905092915050565b61073b83838360405180602001604052806000815250610c25565b505050565b600061074a61060e565b821061078b576040517f08c379a000000000000000000000000000000000000000000000000000000000815260040161078290612910565b60405180910390fd5b6008828154811061079f5761079e612d1f565b5b90600052602060002001549050919050565b6000806002600084815260200190815260200160002060009054906101000a900473ffffffffffffffffffffffffffffffffffffffff169050600073ffffffffffffffffffffffffffffffffffffffff168173ffffffffffffffffffffffffffffffffffffffff16141561085a576040517f08c379a000000000000000000000000000000000000000000000000000000000815260040161085190612810565b60405180910390fd5b80915050919050565b600b816040516108739190612631565b908152602001604051809103902060009054906101000a900460ff16156108cf576040517f08c379a00000000000000000000000000000000000000000000000000000000081526004016108c690612870565b60405180910390fd5b600a8190806001815401808255809150506001900390600052602060002001600090919091909150908051906020019061090a929190611e8f565b506000600a80549050905061091f338261134f565b6001600b836040516109319190612631565b908152602001604051809103902060006101000a81548160ff0219169083151502179055505050565b60008073ffffffffffffffffffffffffffffffffffffffff168273ffffffffffffffffffffffffffffffffffffffff1614156109cb576040517f08c379a00000000000000000000000000000000000000000000000000000000081526004016109c2906127f0565b60405180910390fd5b600360008373ffffffffffffffffffffffffffffffffffffffff1673ffffffffffffffffffffffffffffffffffffffff168152602001908152602001600020549050919050565b606060018054610a2190612b86565b80601f0160208091040260200160405190810160405280929190818152602001828054610a4d90612b86565b8015610a9a5780601f10610a6f57610100808354040283529160200191610a9a565b820191906000526020600020905b815481529060010190602001808311610a7d57829003601f168201915b5050505050905090565b610aac610f54565b73ffffffffffffffffffffffffffffffffffffffff168273ffffffffffffffffffffffffffffffffffffffff161415610b1a576040517f08c379a0000000000000000000000000000000000000000000000000000000008152600401610b1190612790565b60405180910390fd5b8060056000610b27610f54565b73ffffffffffffffffffffffffffffffffffffffff1673ffffffffffffffffffffffffffffffffffffffff16815260200190815260200160002060008473ffffffffffffffffffffffffffffffffffffffff1673ffffffffffffffffffffffffffffffffffffffff16815260200190815260200160002060006101000a81548160ff0219169083151502179055508173ffffffffffffffffffffffffffffffffffffffff16610bd4610f54565b73ffffffffffffffffffffffffffffffffffffffff167f17307eab39ab6107e8899845ad3d59bd9653f200f220920489ca2b5937696c3183604051610c1991906126d3565b60405180910390a35050565b610c36610c30610f54565b83611015565b610c75576040517f08c379a0000000000000000000000000000000000000000000000000000000008152600401610c6c906128f0565b60405180910390fd5b610c818484848461136d565b50505050565b600a8181548110610c9757600080fd5b906000526020600020016000915090508054610cb290612b86565b80601f0160208091040260200160405190810160405280929190818152602001828054610cde90612b86565b8015610d2b5780601f10610d0057610100808354040283529160200191610d2b565b820191906000526020600020905b815481529060010190602001808311610d0e57829003601f168201915b505050505081565b6060610d3e82610ee8565b610d7d576040517f08c379a0000000000000000000000000000000000000000000000000000000008152600401610d74906128b0565b60405180910390fd5b6000610d876113c9565b90506000815111610da75760405180602001604052806000815250610dd2565b80610db1846113e0565b604051602001610dc2929190612648565b6040516020818303038152906040525b915050919050565b6000600560008473ffffffffffffffffffffffffffffffffffffffff1673ffffffffffffffffffffffffffffffffffffffff16815260200190815260200160002060008373ffffffffffffffffffffffffffffffffffffffff1673ffffffffffffffffffffffffffffffffffffffff16815260200190815260200160002060009054906101000a900460ff16905092915050565b60007f780e9d63000000000000000000000000000000000000000000000000000000007bffffffffffffffffffffffffffffffffffffffffffffffffffffffff1916827bffffffffffffffffffffffffffffffffffffffffffffffffffffffff19161480610ee15750610ee082611541565b5b9050919050565b60008073ffffffffffffffffffffffffffffffffffffffff166002600084815260200190815260200160002060009054906101000a900473ffffffffffffffffffffffffffffffffffffffff1673ffffffffffffffffffffffffffffffffffffffff1614159050919050565b600033905090565b816004600083815260200190815260200160002060006101000a81548173ffffffffffffffffffffffffffffffffffffffff021916908373ffffffffffffffffffffffffffffffffffffffff160217905550808273ffffffffffffffffffffffffffffffffffffffff16610fcf836107b1565b73ffffffffffffffffffffffffffffffffffffffff167f8c5be1e5ebec7d5bd14f71427d1e84f3dd0314c0f7b2291e5b200ac8c7c3b92560405160405180910390a45050565b600061102082610ee8565b61105f576040517f08c379a0000000000000000000000000000000000000000000000000000000008152600401611056906127b0565b60405180910390fd5b600061106a836107b1565b90508073ffffffffffffffffffffffffffffffffffffffff168473ffffffffffffffffffffffffffffffffffffffff1614806110d957508373ffffffffffffffffffffffffffffffffffffffff166110c184610471565b73ffffffffffffffffffffffffffffffffffffffff16145b806110ea57506110e98185610dda565b5b91505092915050565b8273ffffffffffffffffffffffffffffffffffffffff16611113826107b1565b73ffffffffffffffffffffffffffffffffffffffff1614611169576040517f08c379a000000000000000000000000000000000000000000000000000000000815260040161116090612890565b60405180910390fd5b600073ffffffffffffffffffffffffffffffffffffffff168273ffffffffffffffffffffffffffffffffffffffff1614156111d9576040517f08c379a00000000000000000000000000000000000000000000000000000000081526004016111d090612770565b60405180910390fd5b6111e4838383611623565b6111ef600082610f5c565b6001600360008573ffffffffffffffffffffffffffffffffffffffff1673ffffffffffffffffffffffffffffffffffffffff168152602001908152602001600020600082825461123f9190612a9c565b925050819055506001600360008473ffffffffffffffffffffffffffffffffffffffff1673ffffffffffffffffffffffffffffffffffffffff16815260200190815260200160002060008282546112969190612a15565b92505081905550816002600083815260200190815260200160002060006101000a81548173ffffffffffffffffffffffffffffffffffffffff021916908373ffffffffffffffffffffffffffffffffffffffff160217905550808273ffffffffffffffffffffffffffffffffffffffff168473ffffffffffffffffffffffffffffffffffffffff167fddf252ad1be2c89b69c2b068fc378daa952ba7f163c4a11628f55a4df523b3ef60405160405180910390a4505050565b611369828260405180602001604052806000815250611633565b5050565b6113788484846110f3565b6113848484848461168e565b6113c3576040517f08c379a00000000000000000000000000000000000000000000000000000000081526004016113ba90612730565b60405180910390fd5b50505050565b606060405180602001604052806000815250905090565b60606000821415611428576040518060400160405280600181526020017f3000000000000000000000000000000000000000000000000000000000000000815250905061153c565b600082905060005b6000821461145a57808061144390612be9565b915050600a826114539190612a6b565b9150611430565b60008167ffffffffffffffff81111561147657611475612d4e565b5b6040519080825280601f01601f1916602001820160405280156114a85781602001600182028036833780820191505090505b5090505b60008514611535576001826114c19190612a9c565b9150600a856114d09190612c32565b60306114dc9190612a15565b60f81b8183815181106114f2576114f1612d1f565b5b60200101907effffffffffffffffffffffffffffffffffffffffffffffffffffffffffffff1916908160001a905350600a8561152e9190612a6b565b94506114ac565b8093505050505b919050565b60007f80ac58cd000000000000000000000000000000000000000000000000000000007bffffffffffffffffffffffffffffffffffffffffffffffffffffffff1916827bffffffffffffffffffffffffffffffffffffffffffffffffffffffff1916148061160c57507f5b5e139f000000000000000000000000000000000000000000000000000000007bffffffffffffffffffffffffffffffffffffffffffffffffffffffff1916827bffffffffffffffffffffffffffffffffffffffffffffffffffffffff1916145b8061161c575061161b82611825565b5b9050919050565b61162e83838361188f565b505050565b61163d83836119a3565b61164a600084848461168e565b611689576040517f08c379a000000000000000000000000000000000000000000000000000000000815260040161168090612730565b60405180910390fd5b505050565b60006116af8473ffffffffffffffffffffffffffffffffffffffff16611b71565b15611818578373ffffffffffffffffffffffffffffffffffffffff1663150b7a026116d8610f54565b8786866040518563ffffffff1660e01b81526004016116fa9493929190612687565b602060405180830381600087803b15801561171457600080fd5b505af192505050801561174557506040513d601f19601f82011682018060405250810190611742919061226b565b60015b6117c8573d8060008114611775576040519150601f19603f3d011682016040523d82523d6000602084013e61177a565b606091505b506000815114156117c0576040517f08c379a00000000000000000000000000000000000000000000000000000000081526004016117b790612730565b60405180910390fd5b805181602001fd5b63150b7a0260e01b7bffffffffffffffffffffffffffffffffffffffffffffffffffffffff1916817bffffffffffffffffffffffffffffffffffffffffffffffffffffffff19161491505061181d565b600190505b949350505050565b60007f01ffc9a7000000000000000000000000000000000000000000000000000000007bffffffffffffffffffffffffffffffffffffffffffffffffffffffff1916827bffffffffffffffffffffffffffffffffffffffffffffffffffffffff1916149050919050565b61189a838383611b84565b600073ffffffffffffffffffffffffffffffffffffffff168373ffffffffffffffffffffffffffffffffffffffff1614156118dd576118d881611b89565b61191c565b8173ffffffffffffffffffffffffffffffffffffffff168373ffffffffffffffffffffffffffffffffffffffff161461191b5761191a8382611bd2565b5b5b600073ffffffffffffffffffffffffffffffffffffffff168273ffffffffffffffffffffffffffffffffffffffff16141561195f5761195a81611d3f565b61199e565b8273ffffffffffffffffffffffffffffffffffffffff168273ffffffffffffffffffffffffffffffffffffffff161461199d5761199c8282611e10565b5b5b505050565b600073ffffffffffffffffffffffffffffffffffffffff168273ffffffffffffffffffffffffffffffffffffffff161415611a13576040517f08c379a0000000000000000000000000000000000000000000000000000000008152600401611a0a90612830565b60405180910390fd5b611a1c81610ee8565b15611a5c576040517f08c379a0000000000000000000000000000000000000000000000000000000008152600401611a5390612750565b60405180910390fd5b611a6860008383611623565b6001600360008473ffffffffffffffffffffffffffffffffffffffff1673ffffffffffffffffffffffffffffffffffffffff1681526020019081526020016000206000828254611ab89190612a15565b92505081905550816002600083815260200190815260200160002060006101000a81548173ffffffffffffffffffffffffffffffffffffffff021916908373ffffffffffffffffffffffffffffffffffffffff160217905550808273ffffffffffffffffffffffffffffffffffffffff16600073ffffffffffffffffffffffffffffffffffffffff167fddf252ad1be2c89b69c2b068fc378daa952ba7f163c4a11628f55a4df523b3ef60405160405180910390a45050565b600080823b905060008111915050919050565b505050565b6008805490506009600083815260200190815260200160002081905550600881908060018154018082558091505060019003906000526020600020016000909190919091505550565b60006001611bdf8461095a565b611be99190612a9c565b9050600060076000848152602001908152602001600020549050818114611cce576000600660008673ffffffffffffffffffffffffffffffffffffffff1673ffffffffffffffffffffffffffffffffffffffff168152602001908152602001600020600084815260200190815260200160002054905080600660008773ffffffffffffffffffffffffffffffffffffffff1673ffffffffffffffffffffffffffffffffffffffff168152602001908152602001600020600084815260200190815260200160002081905550816007600083815260200190815260200160002081905550505b6007600084815260200190815260200160002060009055600660008573ffffffffffffffffffffffffffffffffffffffff1673ffffffffffffffffffffffffffffffffffffffff16815260200190815260200160002060008381526020019081526020016000206000905550505050565b60006001600880549050611d539190612a9c565b9050600060096000848152602001908152602001600020549050600060088381548110611d8357611d82612d1f565b5b906000526020600020015490508060088381548110611da557611da4612d1f565b5b906000526020600020018190555081600960008381526020019081526020016000208190555060096000858152602001908152602001600020600090556008805480611df457611df3612cf0565b5b6001900381819060005260206000200160009055905550505050565b6000611e1b8361095a565b905081600660008573ffffffffffffffffffffffffffffffffffffffff1673ffffffffffffffffffffffffffffffffffffffff168152602001908152602001600020600083815260200190815260200160002081905550806007600084815260200190815260200160002081905550505050565b828054611e9b90612b86565b90600052602060002090601f016020900481019282611ebd5760008555611f04565b82601f10611ed657805160ff1916838001178555611f04565b82800160010185558215611f04579182015b82811115611f03578251825591602001919060010190611ee8565b5b509050611f119190611f15565b5090565b5b80821115611f2e576000816000905550600101611f16565b5090565b6000611f45611f4084612970565b61294b565b905082815260208101848484011115611f6157611f60612d82565b5b611f6c848285612b44565b509392505050565b6000611f87611f82846129a1565b61294b565b905082815260208101848484011115611fa357611fa2612d82565b5b611fae848285612b44565b509392505050565b600081359050611fc581613249565b92915050565b600081359050611fda81613260565b92915050565b600081359050611fef81613277565b92915050565b60008151905061200481613277565b92915050565b600082601f83011261201f5761201e612d7d565b5b813561202f848260208601611f32565b91505092915050565b600082601f83011261204d5761204c612d7d565b5b813561205d848260208601611f74565b91505092915050565b6000813590506120758161328e565b92915050565b60006020828403121561209157612090612d8c565b5b600061209f84828501611fb6565b91505092915050565b600080604083850312156120bf576120be612d8c565b5b60006120cd85828601611fb6565b92505060206120de85828601611fb6565b9150509250929050565b60008060006060848603121561210157612100612d8c565b5b600061210f86828701611fb6565b935050602061212086828701611fb6565b925050604061213186828701612066565b9150509250925092565b6000806000806080858703121561215557612154612d8c565b5b600061216387828801611fb6565b945050602061217487828801611fb6565b935050604061218587828801612066565b925050606085013567ffffffffffffffff8111156121a6576121a5612d87565b5b6121b28782880161200a565b91505092959194509250565b600080604083850312156121d5576121d4612d8c565b5b60006121e385828601611fb6565b92505060206121f485828601611fcb565b9150509250929050565b6000806040838503121561221557612214612d8c565b5b600061222385828601611fb6565b925050602061223485828601612066565b9150509250929050565b60006020828403121561225457612253612d8c565b5b600061226284828501611fe0565b91505092915050565b60006020828403121561228157612280612d8c565b5b600061228f84828501611ff5565b91505092915050565b6000602082840312156122ae576122ad612d8c565b5b600082013567ffffffffffffffff8111156122cc576122cb612d87565b5b6122d884828501612038565b91505092915050565b6000602082840312156122f7576122f6612d8c565b5b600061230584828501612066565b91505092915050565b61231781612ad0565b82525050565b61232681612ae2565b82525050565b6000612337826129d2565b61234181856129e8565b9350612351818560208601612b53565b61235a81612d91565b840191505092915050565b6000612370826129dd565b61237a81856129f9565b935061238a818560208601612b53565b61239381612d91565b840191505092915050565b60006123a9826129dd565b6123b38185612a0a565b93506123c3818560208601612b53565b80840191505092915050565b60006123dc602b836129f9565b91506123e782612da2565b604082019050919050565b60006123ff6032836129f9565b915061240a82612df1565b604082019050919050565b6000612422601c836129f9565b915061242d82612e40565b602082019050919050565b60006124456024836129f9565b915061245082612e69565b604082019050919050565b60006124686019836129f9565b915061247382612eb8565b602082019050919050565b600061248b602c836129f9565b915061249682612ee1565b604082019050919050565b60006124ae6038836129f9565b91506124b982612f30565b604082019050919050565b60006124d1602a836129f9565b91506124dc82612f7f565b604082019050919050565b60006124f46029836129f9565b91506124ff82612fce565b604082019050919050565b60006125176020836129f9565b91506125228261301d565b602082019050919050565b600061253a602c836129f9565b915061254582613046565b604082019050919050565b600061255d601a836129f9565b915061256882613095565b602082019050919050565b60006125806029836129f9565b915061258b826130be565b604082019050919050565b60006125a3602f836129f9565b91506125ae8261310d565b604082019050919050565b60006125c66021836129f9565b91506125d18261315c565b604082019050919050565b60006125e96031836129f9565b91506125f4826131ab565b604082019050919050565b600061260c602c836129f9565b9150612617826131fa565b604082019050919050565b61262b81612b3a565b82525050565b600061263d828461239e565b915081905092915050565b6000612654828561239e565b9150612660828461239e565b91508190509392505050565b6000602082019050612681600083018461230e565b92915050565b600060808201905061269c600083018761230e565b6126a9602083018661230e565b6126b66040830185612622565b81810360608301526126c8818461232c565b905095945050505050565b60006020820190506126e8600083018461231d565b92915050565b600060208201905081810360008301526127088184612365565b905092915050565b60006020820190508181036000830152612729816123cf565b9050919050565b60006020820190508181036000830152612749816123f2565b9050919050565b6000602082019050818103600083015261276981612415565b9050919050565b6000602082019050818103600083015261278981612438565b9050919050565b600060208201905081810360008301526127a98161245b565b9050919050565b600060208201905081810360008301526127c98161247e565b9050919050565b600060208201905081810360008301526127e9816124a1565b9050919050565b60006020820190508181036000830152612809816124c4565b9050919050565b60006020820190508181036000830152612829816124e7565b9050919050565b600060208201905081810360008301526128498161250a565b9050919050565b600060208201905081810360008301526128698161252d565b9050919050565b6000602082019050818103600083015261288981612550565b9050919050565b600060208201905081810360008301526128a981612573565b9050919050565b600060208201905081810360008301526128c981612596565b9050919050565b600060208201905081810360008301526128e9816125b9565b9050919050565b60006020820190508181036000830152612909816125dc565b9050919050565b60006020820190508181036000830152612929816125ff565b9050919050565b60006020820190506129456000830184612622565b92915050565b6000612955612966565b90506129618282612bb8565b919050565b6000604051905090565b600067ffffffffffffffff82111561298b5761298a612d4e565b5b61299482612d91565b9050602081019050919050565b600067ffffffffffffffff8211156129bc576129bb612d4e565b5b6129c582612d91565b9050602081019050919050565b600081519050919050565b600081519050919050565b600082825260208201905092915050565b600082825260208201905092915050565b600081905092915050565b6000612a2082612b3a565b9150612a2b83612b3a565b9250827fffffffffffffffffffffffffffffffffffffffffffffffffffffffffffffffff03821115612a6057612a5f612c63565b5b828201905092915050565b6000612a7682612b3a565b9150612a8183612b3a565b925082612a9157612a90612c92565b5b828204905092915050565b6000612aa782612b3a565b9150612ab283612b3a565b925082821015612ac557612ac4612c63565b5b828203905092915050565b6000612adb82612b1a565b9050919050565b60008115159050919050565b60007fffffffff0000000000000000000000000000000000000000000000000000000082169050919050565b600073ffffffffffffffffffffffffffffffffffffffff82169050919050565b6000819050919050565b82818337600083830152505050565b60005b83811015612b71578082015181840152602081019050612b56565b83811115612b80576000848401525b50505050565b60006002820490506001821680612b9e57607f821691505b60208210811415612bb257612bb1612cc1565b5b50919050565b612bc182612d91565b810181811067ffffffffffffffff82111715612be057612bdf612d4e565b5b80604052505050565b6000612bf482612b3a565b91507fffffffffffffffffffffffffffffffffffffffffffffffffffffffffffffffff821415612c2757612c26612c63565b5b600182019050919050565b6000612c3d82612b3a565b9150612c4883612b3a565b925082612c5857612c57612c92565b5b828206905092915050565b7f4e487b7100000000000000000000000000000000000000000000000000000000600052601160045260246000fd5b7f4e487b7100000000000000000000000000000000000000000000000000000000600052601260045260246000fd5b7f4e487b7100000000000000000000000000000000000000000000000000000000600052602260045260246000fd5b7f4e487b7100000000000000000000000000000000000000000000000000000000600052603160045260246000fd5b7f4e487b7100000000000000000000000000000000000000000000000000000000600052603260045260246000fd5b7f4e487b7100000000000000000000000000000000000000000000000000000000600052604160045260246000fd5b600080fd5b600080fd5b600080fd5b600080fd5b6000601f19601f8301169050919050565b7f455243373231456e756d657261626c653a206f776e657220696e646578206f7560008201527f74206f6620626f756e6473000000000000000000000000000000000000000000602082015250565b7f4552433732313a207472616e7366657220746f206e6f6e20455243373231526560008201527f63656976657220696d706c656d656e7465720000000000000000000000000000602082015250565b7f4552433732313a20746f6b656e20616c7265616479206d696e74656400000000600082015250565b7f4552433732313a207472616e7366657220746f20746865207a65726f2061646460008201527f7265737300000000000000000000000000000000000000000000000000000000602082015250565b7f4552433732313a20617070726f766520746f2063616c6c657200000000000000600082015250565b7f4552433732313a206f70657261746f7220717565727920666f72206e6f6e657860008201527f697374656e7420746f6b656e0000000000000000000000000000000000000000602082015250565b7f4552433732313a20617070726f76652063616c6c6572206973206e6f74206f7760008201527f6e6572206e6f7220617070726f76656420666f7220616c6c0000000000000000602082015250565b7f4552433732313a2062616c616e636520717565727920666f7220746865207a6560008201527f726f206164647265737300000000000000000000000000000000000000000000602082015250565b7f4552433732313a206f776e657220717565727920666f72206e6f6e657869737460008201527f656e7420746f6b656e0000000000000000000000000000000000000000000000602082015250565b7f4552433732313a206d696e7420746f20746865207a65726f2061646472657373600082015250565b7f4552433732313a20617070726f76656420717565727920666f72206e6f6e657860008201527f697374656e7420746f6b656e0000000000000000000000000000000000000000602082015250565b7f54686520636f6c6f722073686f756c6420626520756e69717565000000000000600082015250565b7f4552433732313a207472616e73666572206f6620746f6b656e2074686174206960008201527f73206e6f74206f776e0000000000000000000000000000000000000000000000602082015250565b7f4552433732314d657461646174613a2055524920717565727920666f72206e6f60008201527f6e6578697374656e7420746f6b656e0000000000000000000000000000000000602082015250565b7f4552433732313a20617070726f76616c20746f2063757272656e74206f776e6560008201527f7200000000000000000000000000000000000000000000000000000000000000602082015250565b7f4552433732313a207472616e736665722063616c6c6572206973206e6f74206f60008201527f776e6572206e6f7220617070726f766564000000000000000000000000000000602082015250565b7f455243373231456e756d657261626c653a20676c6f62616c20696e646578206f60008201527f7574206f6620626f756e64730000000000000000000000000000000000000000602082015250565b61325281612ad0565b811461325d57600080fd5b50565b61326981612ae2565b811461327457600080fd5b50565b61328081612aee565b811461328b57600080fd5b50565b61329781612b3a565b81146132a257600080fd5b5056fea264697066735822122009b13f95f2ab51eb82d0d8b3f2f5749bb34377a79e93077cfe3fc5e8cabc387464736f6c63430008060033",
  "immutableReferences": {},
  "source": "// SPDX-License-Identifier: MIT\r\npragma solidity ^0.8.0;\r\n\r\nimport \"@openzeppelin/contracts/token/ERC721/ERC721.sol\";\r\nimport \"@openzeppelin/contracts/token/ERC721/extensions/ERC721Enumerable.sol\";\r\n\r\ncontract ColorNFT is ERC721, ERC721Enumerable {\r\n  string[] public colors;\r\n  mapping(string => bool) _colorExists;\r\n\r\n  constructor() \r\n    ERC721(\"Color\", \"COLOR\") \r\n    {\r\n  }\r\n\r\n  function _beforeTokenTransfer(address from, address to, uint256 tokenId) internal override(ERC721, ERC721Enumerable) {\r\n    super._beforeTokenTransfer(from, to, tokenId);\r\n  }\r\n\r\n  function supportsInterface(bytes4 interfaceId) public view override(ERC721, ERC721Enumerable) returns (bool) {\r\n    return super.supportsInterface(interfaceId);\r\n  }\r\n\r\n  function safeMint(string memory _color) public {\r\n    require(!_colorExists[_color], 'The color should be unique');\r\n    colors.push(_color);\r\n    uint _id = colors.length;\r\n    _safeMint(msg.sender, _id);\r\n    _colorExists[_color] = true;\r\n  }\r\n}",
  "sourcePath": "/mnt/c/Users/Lenovo/Desktop/Blockchain Developer/DApps/nft-colors/src/contracts/ColorNFT.sol",
  "compiler": {
    "name": "solc",
    "version": "0.8.6+commit.11564f7e.Emscripten.clang"
  },
  "schemaVersion": "3.4.1",
  "updatedAt": "2021-08-01T15:57:49.348Z",
  "networkType": "ethereum",
  "devdoc": {
    "kind": "dev",
    "methods": {
      "approve(address,uint256)": {
        "details": "See {IERC721-approve}."
      },
      "balanceOf(address)": {
        "details": "See {IERC721-balanceOf}."
      },
      "getApproved(uint256)": {
        "details": "See {IERC721-getApproved}."
      },
      "isApprovedForAll(address,address)": {
        "details": "See {IERC721-isApprovedForAll}."
      },
      "name()": {
        "details": "See {IERC721Metadata-name}."
      },
      "ownerOf(uint256)": {
        "details": "See {IERC721-ownerOf}."
      },
      "safeTransferFrom(address,address,uint256)": {
        "details": "See {IERC721-safeTransferFrom}."
      },
      "safeTransferFrom(address,address,uint256,bytes)": {
        "details": "See {IERC721-safeTransferFrom}."
      },
      "setApprovalForAll(address,bool)": {
        "details": "See {IERC721-setApprovalForAll}."
      },
      "symbol()": {
        "details": "See {IERC721Metadata-symbol}."
      },
      "tokenByIndex(uint256)": {
        "details": "See {IERC721Enumerable-tokenByIndex}."
      },
      "tokenOfOwnerByIndex(address,uint256)": {
        "details": "See {IERC721Enumerable-tokenOfOwnerByIndex}."
      },
      "tokenURI(uint256)": {
        "details": "See {IERC721Metadata-tokenURI}."
      },
      "totalSupply()": {
        "details": "See {IERC721Enumerable-totalSupply}."
      },
      "transferFrom(address,address,uint256)": {
        "details": "See {IERC721-transferFrom}."
      }
    },
    "version": 1
  },
  "userdoc": {
    "kind": "user",
    "methods": {},
    "version": 1
  }
}